:020000040000FA
:04000000FEEF7FF0A0
:0D2600000000010203040506070850010058
:10260E00000E0301F96F000EFA6F000ED86F000E68
:10261E00FB6F000ED96F000EDA6F000EDB6F000E2F
:10262E00DC6F000EDF6F000EE06F000EE36F000E2A
:10263E00E46F000EE56F000EE66F000EE76F000E02
:10264E00EA6F000EEB6F000EEC6F000EEE6F000ED9
:10265E00EF6F000EF06F000EF16F000EF26F000EB6
:10266E00F36F000EF46F100EF56F000EF66F000E86
:10267E00F76F000EF86F000EFC6FAF94AF96B09030
:10268E00000E1C6E000E1D6EBBEC14F0000E1C6EC8
:10269E00000E1D6EB1EC14F0000E1C6E000E1D6EC1
:1026AE00B6EC14F0840E0301F36F12001E6E000ED2
:1026BE001D6EACEC14F01C6E040E1C18D8B46AEF30
:1026CE0013F06CEF13F07DEF13F01E04D8B472EF1D
:1026DE0013F074EF13F07DEF13F0040E1E18D8A450
:1026EE007BEF13F07DEF13F09DEF13F0010103511B
:1026FE001E18F80B1E18036F90EF13F01DA98AEF2A
:10270E0013F08CEF13F090EF13F0020E1D6E9FEF8F
:10271E0013F00239E832070B1E18D8A499EF13F004
:10272E009BEF13F085EF13F09FEF13F0010E1D6E6C
:10273E001D501200000EBE6E000EBF6E000EC06E5B
:10274E00080ECA6EC668CF0EC76EB00EC86E400EAB
:10275E000401106FD10E086FCF0E006F000E216FA7
:10276E00000E096F000E016F000E116F000E026F4A
:10277E00000E0A6F000E126F03690B69136904696C
:10278E000C691469080E246F140E0201696F0B0E8A
:10279E003D6F460E0D6F200E176F170E726FBF8AAC
:1027AE0034EC14F01200000E0201A56F000EA66F9D
:1027BE00000EA76F000EA86F000EA96F000EAA6F75
:1027CE00B00EAB6F800EAC6F000EAD6F100EAE6F15
:1027DE00000EAF6F000EB06F000EB16F000EB26F35
:1027EE00000EB36F000E1C6E000E1D6EA2EC14F0E8
:1027FE00000E1C6E000E1D6E9DEC14F0000E1C6E75
:10280E00000E1D6EA7EC14F0000E1A6E000E196E5F
:10281E00000E1B6E12000101018F040E5DEC13F011
:10282E000009D8A41DEF14F01FEF14F033EF14F0CD
:10283E00000E01014C6F380E4D6F000E4E6F000EE4
:10284E004F6F600E006F970E016F000E026F82ECDD
:10285E0014F0060E5DEC13F01200CEA839EF14F052
:10286E003BEF14F03CEF14F0BE98CEAA41EF14F0FB
:10287E0043EF14F044EF14F0BE9ACFA449EF14F0D6
:10288E004BEF14F04CEF14F0BF94CFA251EF14F0B5
:10289E0053EF14F054EF14F0BF921200000E00012B
:1028AE00606F000E616F000E626F000E636F000EA0
:1028BE00646F000E656F000E666F000E676F000E80
:1028CE00686F120055EC14F0A1EC13F007EC13F046
:1028DE0076EC14F0DAEC13F012EC14F01200700E29
:1028EE000001AD6F000EAF6F000EB36F020EB16F31
:1028FE00000EB06F1200010E0101046F010E056F84
:10290E00040E066F070E076F120001EE01F11B0E8B
:10291E00EE6AE806FDE1000195EF14F069EC14F0A3
:10292E0034EC14F097EF14F0FEEF7FF01CC515F5A4
:10293E001DC516F512001CC517F51DC518F512009C
:10294E001CC513F51DC514F5120001010239E8323C
:10295E00070B12001CC50DF51DC50EF512001CC58A
:10296E000BF51DC50CF512001CC50FF51DC510F598
:02297E00120045
:04FFFC008CEF14F082
:020000040020DA
:10000000FF0FFF0FFF0FFF0FFF0FFF0FFF0FFF0F80
:10001000FF0FFF0FFF0FFF0FFF0FFF0FFF0FFF0F70
:020000040030CA
:10000000FAFFF7FF9FFFFFFFFFFFFFFFFFFFFFFF6D
:10001000FFFFFFFFFFFFFFFFFFFFFFFFFFFFFFFFF0
:04002000FFFFFFFFE0
:00000001FF
