:04000000FEEF7FF0A0
:0D2600000000010203040506070850010058
:10260E00000E0301F96F000EFA6F000ED86F000E68
:10261E00FB6F000ED96F000EDA6F000EDB6F000E2F
:10262E00DC6F000EDF6F000EE06F000EE36F000E2A
:10263E00E46F000EE56F000EE66F000EE76F000E02
:10264E00EA6F000EEB6F000EEC6F000EEE6F000ED9
:10265E00EF6F000EF06F000EF16F000EF26F000EB6
:10266E00F36F000EF46F100EF56F000EF66F000E86
:10267E00F76F000EF86F000EFC6FAF94AF96B09030
:10268E00000E0D6E000E0E6E88EC14F0000E0D6E28
:10269E00000E0E6E7EEC14F0000E0D6E000E0E6E21
:1026AE0083EC14F0840E0301F36F12000F6E000E14
:1026BE000E6E79EC14F00D6E040E0D18D8B46AEF90
:1026CE0013F06CEF13F07DEF13F00F04D8B472EF2C
:1026DE0013F074EF13F07DEF13F0040E0F18D8A45F
:1026EE007BEF13F07DEF13F09DEF13F0010103511B
:1026FE000F18F80B0F18036F90EF13F01DA98AEF48
:10270E0013F08CEF13F090EF13F0020E0E6E9FEF9E
:10271E0013F00239E832070B0F18D8A499EF13F013
:10272E009BEF13F085EF13F09FEF13F0010E0E6E7B
:10273E000E501200000EBE6E000EBF6E000EC06E6A
:10274E00080ECA6EC668CF0EC76EB00EC86E400EAB
:10275E000401106FD10E086FCF0E006F000E216FA7
:10276E00000E096F000E016F000E116F000E026F4A
:10277E00000E0A6F000E126F03690B69136904696C
:10278E000C691469080E246F140E0201696F0B0E8A
:10279E003D6F460E0D6F200E176F170E726F1200E3
:1027AE00000E0201A56F000EA66F000EA76F000EA1
:1027BE00A86F000EA96F000EAA6FB00EAB6F800E41
:1027CE00AC6F000EAD6F100EAE6F000EAF6F000E41
:1027DE00B06F000EB16F000EB26F000EB36F000E31
:1027EE000D6E000E0E6E6FEC14F0000E0D6E000EE0
:1027FE000E6E6AEC14F0000E0D6E000E0E6E74EC82
:10280E0014F0000E106E12000101018F040E5DEC2B
:10281E0013F00009D8A416EF14F018EF14F02CEFF3
:10282E0014F0000E01014C6F380E4D6F000E4E6FFE
:10283E00000E4F6F600E006F970E016F000E026F4D
:10284E005AEC14F0060E5DEC13F01200000E0001AF
:10285E00606F000E616F000E626F000E636F000EF0
:10286E00646F000E656F000E666F000E676F000ED0
:10287E00686F12002DEC14F0A1EC13F007EC13F0BE
:10288E004EEC14F0D7EC13F00BEC14F01200700EAB
:10289E000001AD6F000EAF6F000EB36F020EB16F81
:1028AE00000EB06F1200010E0101046F010E056FD4
:1028BE00040E066F070E076F120041EC14F066EF60
:1028CE0014F0FEEF7FF00DC509F50EC50AF51200E6
:1028DE000DC50BF50EC50CF512000DC507F50EC591
:1028EE0008F5120001010239E832070B12000DC57E
:1028FE0003F50EC504F512000DC501F50EC502F562
:10290E0012000DC505F50EC506F51200106A000180
:04291E0064EF14F05E
:04FFFC008DEF14F081
:020000040020DA
:10000000FF0FFF0FFF0FFF0FFF0FFF0FFF0FFF0F80
:10001000FF0FFF0FFF0FFF0FFF0FFF0FFF0FFF0F70
:020000040030CA
:10000000FAFFF7FF9FFFFFFFFFFFFFFFFFFFFFFF6D
:10001000FFFFFFFFFFFFFFFFFFFFFFFFFFFFFFFFF0
:04002000FFFFFFFFE0
:00000001FF
